{
  "_format": "hh-sol-artifact-1",
  "contractName": "myNFTs",
  "sourceName": "contracts/myNFTs.sol",
  "abi": [
    {
      "inputs": [
        {
          "internalType": "uint256",
          "name": "_startTime",
          "type": "uint256"
        },
        {
          "internalType": "bool",
          "name": "_paused",
          "type": "bool"
        }
      ],
      "stateMutability": "nonpayable",
      "type": "constructor"
    },
    {
      "inputs": [],
      "name": "ApprovalCallerNotOwnerNorApproved",
      "type": "error"
    },
    {
      "inputs": [],
      "name": "ApprovalQueryForNonexistentToken",
      "type": "error"
    },
    {
      "inputs": [],
      "name": "BalanceQueryForZeroAddress",
      "type": "error"
    },
    {
      "inputs": [],
      "name": "MintERC2309QuantityExceedsLimit",
      "type": "error"
    },
    {
      "inputs": [],
      "name": "MintToZeroAddress",
      "type": "error"
    },
    {
      "inputs": [],
      "name": "MintZeroQuantity",
      "type": "error"
    },
    {
      "inputs": [],
      "name": "OwnerQueryForNonexistentToken",
      "type": "error"
    },
    {
      "inputs": [],
      "name": "OwnershipNotInitializedForExtraData",
      "type": "error"
    },
    {
      "inputs": [],
      "name": "TransferCallerNotOwnerNorApproved",
      "type": "error"
    },
    {
      "inputs": [],
      "name": "TransferFromIncorrectOwner",
      "type": "error"
    },
    {
      "inputs": [],
      "name": "TransferToNonERC721ReceiverImplementer",
      "type": "error"
    },
    {
      "inputs": [],
      "name": "TransferToZeroAddress",
      "type": "error"
    },
    {
      "inputs": [],
      "name": "URIQueryForNonexistentToken",
      "type": "error"
    },
    {
      "anonymous": false,
      "inputs": [
        {
          "indexed": true,
          "internalType": "address",
          "name": "owner",
          "type": "address"
        },
        {
          "indexed": true,
          "internalType": "address",
          "name": "approved",
          "type": "address"
        },
        {
          "indexed": true,
          "internalType": "uint256",
          "name": "tokenId",
          "type": "uint256"
        }
      ],
      "name": "Approval",
      "type": "event"
    },
    {
      "anonymous": false,
      "inputs": [
        {
          "indexed": true,
          "internalType": "address",
          "name": "owner",
          "type": "address"
        },
        {
          "indexed": true,
          "internalType": "address",
          "name": "operator",
          "type": "address"
        },
        {
          "indexed": false,
          "internalType": "bool",
          "name": "approved",
          "type": "bool"
        }
      ],
      "name": "ApprovalForAll",
      "type": "event"
    },
    {
      "anonymous": false,
      "inputs": [
        {
          "indexed": true,
          "internalType": "uint256",
          "name": "fromTokenId",
          "type": "uint256"
        },
        {
          "indexed": false,
          "internalType": "uint256",
          "name": "toTokenId",
          "type": "uint256"
        },
        {
          "indexed": true,
          "internalType": "address",
          "name": "from",
          "type": "address"
        },
        {
          "indexed": true,
          "internalType": "address",
          "name": "to",
          "type": "address"
        }
      ],
      "name": "ConsecutiveTransfer",
      "type": "event"
    },
    {
      "anonymous": false,
      "inputs": [
        {
          "indexed": true,
          "internalType": "address",
          "name": "previousOwner",
          "type": "address"
        },
        {
          "indexed": true,
          "internalType": "address",
          "name": "newOwner",
          "type": "address"
        }
      ],
      "name": "OwnershipTransferred",
      "type": "event"
    },
    {
      "anonymous": false,
      "inputs": [
        {
          "indexed": true,
          "internalType": "address",
          "name": "from",
          "type": "address"
        },
        {
          "indexed": true,
          "internalType": "address",
          "name": "to",
          "type": "address"
        },
        {
          "indexed": true,
          "internalType": "uint256",
          "name": "tokenId",
          "type": "uint256"
        }
      ],
      "name": "Transfer",
      "type": "event"
    },
    {
      "inputs": [],
      "name": "MAX_SUPPLY",
      "outputs": [
        {
          "internalType": "uint256",
          "name": "",
          "type": "uint256"
        }
      ],
      "stateMutability": "view",
      "type": "function"
    },
    {
      "inputs": [],
      "name": "PRICE_PER_TOKEN",
      "outputs": [
        {
          "internalType": "uint256",
          "name": "",
          "type": "uint256"
        }
      ],
      "stateMutability": "view",
      "type": "function"
    },
    {
      "inputs": [],
      "name": "START_TIME",
      "outputs": [
        {
          "internalType": "uint256",
          "name": "",
          "type": "uint256"
        }
      ],
      "stateMutability": "view",
      "type": "function"
    },
    {
      "inputs": [
        {
          "internalType": "address",
          "name": "to",
          "type": "address"
        },
        {
          "internalType": "uint256",
          "name": "tokenId",
          "type": "uint256"
        }
      ],
      "name": "approve",
      "outputs": [],
      "stateMutability": "payable",
      "type": "function"
    },
    {
      "inputs": [
        {
          "internalType": "address",
          "name": "owner",
          "type": "address"
        }
      ],
      "name": "balanceOf",
      "outputs": [
        {
          "internalType": "uint256",
          "name": "",
          "type": "uint256"
        }
      ],
      "stateMutability": "view",
      "type": "function"
    },
    {
      "inputs": [
        {
          "internalType": "uint256",
          "name": "tokenId",
          "type": "uint256"
        }
      ],
      "name": "getApproved",
      "outputs": [
        {
          "internalType": "address",
          "name": "",
          "type": "address"
        }
      ],
      "stateMutability": "view",
      "type": "function"
    },
    {
      "inputs": [
        {
          "internalType": "address",
          "name": "owner",
          "type": "address"
        },
        {
          "internalType": "address",
          "name": "operator",
          "type": "address"
        }
      ],
      "name": "isApprovedForAll",
      "outputs": [
        {
          "internalType": "bool",
          "name": "",
          "type": "bool"
        }
      ],
      "stateMutability": "view",
      "type": "function"
    },
    {
      "inputs": [
        {
          "internalType": "address",
          "name": "to",
          "type": "address"
        },
        {
          "internalType": "uint256",
          "name": "quantity",
          "type": "uint256"
        }
      ],
      "name": "mint",
      "outputs": [],
      "stateMutability": "payable",
      "type": "function"
    },
    {
      "inputs": [],
      "name": "mintPaused",
      "outputs": [
        {
          "internalType": "bool",
          "name": "",
          "type": "bool"
        }
      ],
      "stateMutability": "view",
      "type": "function"
    },
    {
      "inputs": [],
      "name": "name",
      "outputs": [
        {
          "internalType": "string",
          "name": "",
          "type": "string"
        }
      ],
      "stateMutability": "view",
      "type": "function"
    },
    {
      "inputs": [],
      "name": "owner",
      "outputs": [
        {
          "internalType": "address",
          "name": "",
          "type": "address"
        }
      ],
      "stateMutability": "view",
      "type": "function"
    },
    {
      "inputs": [
        {
          "internalType": "uint256",
          "name": "tokenId",
          "type": "uint256"
        }
      ],
      "name": "ownerOf",
      "outputs": [
        {
          "internalType": "address",
          "name": "",
          "type": "address"
        }
      ],
      "stateMutability": "view",
      "type": "function"
    },
    {
      "inputs": [
        {
          "internalType": "bool",
          "name": "_paused",
          "type": "bool"
        }
      ],
      "name": "pauseMint",
      "outputs": [],
      "stateMutability": "nonpayable",
      "type": "function"
    },
    {
      "inputs": [],
      "name": "renounceOwnership",
      "outputs": [],
      "stateMutability": "nonpayable",
      "type": "function"
    },
    {
      "inputs": [
        {
          "internalType": "address",
          "name": "from",
          "type": "address"
        },
        {
          "internalType": "address",
          "name": "to",
          "type": "address"
        },
        {
          "internalType": "uint256",
          "name": "tokenId",
          "type": "uint256"
        }
      ],
      "name": "safeTransferFrom",
      "outputs": [],
      "stateMutability": "payable",
      "type": "function"
    },
    {
      "inputs": [
        {
          "internalType": "address",
          "name": "from",
          "type": "address"
        },
        {
          "internalType": "address",
          "name": "to",
          "type": "address"
        },
        {
          "internalType": "uint256",
          "name": "tokenId",
          "type": "uint256"
        },
        {
          "internalType": "bytes",
          "name": "_data",
          "type": "bytes"
        }
      ],
      "name": "safeTransferFrom",
      "outputs": [],
      "stateMutability": "payable",
      "type": "function"
    },
    {
      "inputs": [
        {
          "internalType": "address",
          "name": "operator",
          "type": "address"
        },
        {
          "internalType": "bool",
          "name": "approved",
          "type": "bool"
        }
      ],
      "name": "setApprovalForAll",
      "outputs": [],
      "stateMutability": "nonpayable",
      "type": "function"
    },
    {
      "inputs": [
        {
          "internalType": "string",
          "name": "baseURI",
          "type": "string"
        }
      ],
      "name": "setBaseURI",
      "outputs": [],
      "stateMutability": "nonpayable",
      "type": "function"
    },
    {
      "inputs": [
        {
          "internalType": "bytes4",
          "name": "interfaceId",
          "type": "bytes4"
        }
      ],
      "name": "supportsInterface",
      "outputs": [
        {
          "internalType": "bool",
          "name": "",
          "type": "bool"
        }
      ],
      "stateMutability": "view",
      "type": "function"
    },
    {
      "inputs": [],
      "name": "symbol",
      "outputs": [
        {
          "internalType": "string",
          "name": "",
          "type": "string"
        }
      ],
      "stateMutability": "view",
      "type": "function"
    },
    {
      "inputs": [
        {
          "internalType": "uint256",
          "name": "tokenId",
          "type": "uint256"
        }
      ],
      "name": "tokenURI",
      "outputs": [
        {
          "internalType": "string",
          "name": "",
          "type": "string"
        }
      ],
      "stateMutability": "view",
      "type": "function"
    },
    {
      "inputs": [],
      "name": "totalSupply",
      "outputs": [
        {
          "internalType": "uint256",
          "name": "",
          "type": "uint256"
        }
      ],
      "stateMutability": "view",
      "type": "function"
    },
    {
      "inputs": [
        {
          "internalType": "address",
          "name": "from",
          "type": "address"
        },
        {
          "internalType": "address",
          "name": "to",
          "type": "address"
        },
        {
          "internalType": "uint256",
          "name": "tokenId",
          "type": "uint256"
        }
      ],
      "name": "transferFrom",
      "outputs": [],
      "stateMutability": "payable",
      "type": "function"
    },
    {
      "inputs": [
        {
          "internalType": "address",
          "name": "newOwner",
          "type": "address"
        }
      ],
      "name": "transferOwnership",
      "outputs": [],
      "stateMutability": "nonpayable",
      "type": "function"
    },
    {
      "inputs": [],
      "name": "withdraw",
      "outputs": [],
      "stateMutability": "nonpayable",
      "type": "function"
    }
  ],
  "bytecode": "0x60a06040523480156200001157600080fd5b50604051620018a1380380620018a1833981016040819052620000349162000124565b6040518060400160405280600d81526020016c22a9219b9918a0902a37b5b2b760991b815250604051806040016040528060058152602001640dcc8c505560da1b815250816002908162000089919062000200565b50600362000098828262000200565b50506000805550620000aa33620000d2565b60809190915260088054911515600160a01b0260ff60a01b19909216919091179055620002cc565b600880546001600160a01b038381166001600160a01b0319831681179093556040519116919082907f8be0079c531659141344cd1fd0a4f28419497f9722a3daafe3b4186f6b6457e090600090a35050565b600080604083850312156200013857600080fd5b82519150602083015180151581146200015057600080fd5b809150509250929050565b634e487b7160e01b600052604160045260246000fd5b600181811c908216806200018657607f821691505b602082108103620001a757634e487b7160e01b600052602260045260246000fd5b50919050565b601f821115620001fb57600081815260208120601f850160051c81016020861015620001d65750805b601f850160051c820191505b81811015620001f757828155600101620001e2565b5050505b505050565b81516001600160401b038111156200021c576200021c6200015b565b62000234816200022d845462000171565b84620001ad565b602080601f8311600181146200026c5760008415620002535750858301515b600019600386901b1c1916600185901b178555620001f7565b600085815260208120601f198616915b828110156200029d578886015182559484019460019091019084016200027c565b5085821015620002bc5787850151600019600388901b60f8161c191681555b5050505050600190811b01905550565b6080516115b2620002ef600039600081816103de01526108a801526115b26000f3fe6080604052600436106101665760003560e01c806370a08231116100d1578063a22cb4651161008a578063ddaa26ad11610064578063ddaa26ad146103cc578063e985e9c514610400578063f2fde38b14610420578063f30e6e771461044057600080fd5b8063a22cb46514610379578063b88d4fde14610399578063c87b56dd146103ac57600080fd5b806370a08231146102d5578063715018a6146102f55780637e4831d31461030a578063833b94991461032b5780638da5cb5b1461034657806395d89b411461036457600080fd5b806332cb6b0c1161012357806332cb6b0c146102455780633ccfd60b1461025a57806340c10f191461026f57806342842e0e1461028257806355f804b3146102955780636352211e146102b557600080fd5b806301ffc9a71461016b57806306fdde03146101a0578063081812fc146101c2578063095ea7b3146101fa57806318160ddd1461020f57806323b872dd14610232575b600080fd5b34801561017757600080fd5b5061018b610186366004611050565b610460565b60405190151581526020015b60405180910390f35b3480156101ac57600080fd5b506101b56104b2565b60405161019791906110bd565b3480156101ce57600080fd5b506101e26101dd3660046110d0565b610544565b6040516001600160a01b039091168152602001610197565b61020d610208366004611105565b610588565b005b34801561021b57600080fd5b50600154600054035b604051908152602001610197565b61020d61024036600461112f565b610628565b34801561025157600080fd5b50610224606481565b34801561026657600080fd5b5061020d6107c1565b61020d61027d366004611105565b61085b565b61020d61029036600461112f565b6109c1565b3480156102a157600080fd5b5061020d6102b036600461116b565b6109e1565b3480156102c157600080fd5b506101e26102d03660046110d0565b6109f6565b3480156102e157600080fd5b506102246102f03660046111dd565b610a01565b34801561030157600080fd5b5061020d610a50565b34801561031657600080fd5b5060085461018b90600160a01b900460ff1681565b34801561033757600080fd5b50610224662386f26fc1000081565b34801561035257600080fd5b506008546001600160a01b03166101e2565b34801561037057600080fd5b506101b5610a64565b34801561038557600080fd5b5061020d610394366004611208565b610a73565b61020d6103a7366004611251565b610adf565b3480156103b857600080fd5b506101b56103c73660046110d0565b610b29565b3480156103d857600080fd5b506102247f000000000000000000000000000000000000000000000000000000000000000081565b34801561040c57600080fd5b5061018b61041b36600461132d565b610bad565b34801561042c57600080fd5b5061020d61043b3660046111dd565b610bdb565b34801561044c57600080fd5b5061020d61045b366004611357565b610c51565b60006301ffc9a760e01b6001600160e01b03198316148061049157506380ac58cd60e01b6001600160e01b03198316145b806104ac5750635b5e139f60e01b6001600160e01b03198316145b92915050565b6060600280546104c190611372565b80601f01602080910402602001604051908101604052809291908181526020018280546104ed90611372565b801561053a5780601f1061050f5761010080835404028352916020019161053a565b820191906000526020600020905b81548152906001019060200180831161051d57829003601f168201915b5050505050905090565b600061054f82610cc4565b61056c576040516333d1c03960e21b815260040160405180910390fd5b506000908152600660205260409020546001600160a01b031690565b6000610593826109f6565b9050336001600160a01b038216146105cc576105af8133610bad565b6105cc576040516367d9dca160e11b815260040160405180910390fd5b60008281526006602052604080822080546001600160a01b0319166001600160a01b0387811691821790925591518593918516917f8c5be1e5ebec7d5bd14f71427d1e84f3dd0314c0f7b2291e5b200ac8c7c3b92591a4505050565b600061063382610ceb565b9050836001600160a01b0316816001600160a01b0316146106665760405162a1148160e81b815260040160405180910390fd5b60008281526006602052604090208054338082146001600160a01b038816909114176106b3576106968633610bad565b6106b357604051632ce44b5f60e11b815260040160405180910390fd5b6001600160a01b0385166106da57604051633a954ecd60e21b815260040160405180910390fd5b80156106e557600082555b6001600160a01b038681166000908152600560205260408082208054600019019055918716808252919020805460010190554260a01b17600160e11b17600085815260046020526040812091909155600160e11b84169003610777576001840160008181526004602052604081205490036107755760005481146107755760008181526004602052604090208490555b505b83856001600160a01b0316876001600160a01b03167fddf252ad1be2c89b69c2b068fc378daa952ba7f163c4a11628f55a4df523b3ef60405160405180910390a45b505050505050565b6107c9610d52565b604051600090339047908381818185875af1925050503d806000811461080b576040519150601f19603f3d011682016040523d82523d6000602084013e610810565b606091505b50509050806108585760405162461bcd60e51b815260206004820152600f60248201526e151c985b9cd9995c8811985a5b1959608a1b60448201526064015b60405180910390fd5b50565b600854600160a01b900460ff16156108a65760405162461bcd60e51b815260206004820152600e60248201526d135a5b9d081a5cc81c185d5cd95960921b604482015260640161084f565b7f00000000000000000000000000000000000000000000000000000000000000004210156109095760405162461bcd60e51b815260206004820152601060248201526f14d85b19481b9bdd081cdd185c9d195960821b604482015260640161084f565b60648161091560005490565b61091f91906113c2565b111561095e5760405162461bcd60e51b815260206004820152600e60248201526d13585e0814dd5c1c1b1e48121a5d60921b604482015260640161084f565b61096f662386f26fc10000826113d5565b3410156109b35760405162461bcd60e51b8152602060048201526012602482015271496e73756666696369656e742046756e647360701b604482015260640161084f565b6109bd8282610dac565b5050565b6109dc83838360405180602001604052806000815250610adf565b505050565b6109e9610d52565b60096109dc828483611432565b60006104ac82610ceb565b60006001600160a01b038216610a2a576040516323d3ad8160e21b815260040160405180910390fd5b506001600160a01b031660009081526005602052604090205467ffffffffffffffff1690565b610a58610d52565b610a626000610eaa565b565b6060600380546104c190611372565b3360008181526007602090815260408083206001600160a01b03871680855290835292819020805460ff191686151590811790915590519081529192917f17307eab39ab6107e8899845ad3d59bd9653f200f220920489ca2b5937696c31910160405180910390a35050565b610aea848484610628565b6001600160a01b0383163b15610b2357610b0684848484610efc565b610b23576040516368d2bf6b60e11b815260040160405180910390fd5b50505050565b6060610b3482610cc4565b610b5157604051630a14c4b560e41b815260040160405180910390fd5b6000610b5b610fe7565b90508051600003610b7b5760405180602001604052806000815250610ba6565b80610b8584610ff6565b604051602001610b969291906114f3565b6040516020818303038152906040525b9392505050565b6001600160a01b03918216600090815260076020908152604080832093909416825291909152205460ff1690565b610be3610d52565b6001600160a01b038116610c485760405162461bcd60e51b815260206004820152602660248201527f4f776e61626c653a206e6577206f776e657220697320746865207a65726f206160448201526564647265737360d01b606482015260840161084f565b61085881610eaa565b610c59610d52565b600854600160a01b900460ff1615610ca65760405162461bcd60e51b815260206004820152601060248201526f21b7b73a3930b1ba103830bab9b2b21760811b604482015260640161084f565b60088054911515600160a01b0260ff60a01b19909216919091179055565b60008054821080156104ac575050600090815260046020526040902054600160e01b161590565b600081600054811015610d395760008181526004602052604081205490600160e01b82169003610d37575b80600003610ba6575060001901600081815260046020526040902054610d16565b505b604051636f96cda160e11b815260040160405180910390fd5b6008546001600160a01b03163314610a625760405162461bcd60e51b815260206004820181905260248201527f4f776e61626c653a2063616c6c6572206973206e6f7420746865206f776e6572604482015260640161084f565b6000805490829003610dd15760405163b562e8dd60e01b815260040160405180910390fd5b6001600160a01b03831660008181526005602090815260408083208054680100000000000000018802019055848352600490915281206001851460e11b4260a01b178317905582840190839083907fddf252ad1be2c89b69c2b068fc378daa952ba7f163c4a11628f55a4df523b3ef8180a4600183015b818114610e8057808360007fddf252ad1be2c89b69c2b068fc378daa952ba7f163c4a11628f55a4df523b3ef600080a4600101610e48565b5081600003610ea157604051622e076360e81b815260040160405180910390fd5b60005550505050565b600880546001600160a01b038381166001600160a01b0319831681179093556040519116919082907f8be0079c531659141344cd1fd0a4f28419497f9722a3daafe3b4186f6b6457e090600090a35050565b604051630a85bd0160e11b81526000906001600160a01b0385169063150b7a0290610f31903390899088908890600401611522565b6020604051808303816000875af1925050508015610f6c575060408051601f3d908101601f19168201909252610f699181019061155f565b60015b610fca573d808015610f9a576040519150601f19603f3d011682016040523d82523d6000602084013e610f9f565b606091505b508051600003610fc2576040516368d2bf6b60e11b815260040160405180910390fd5b805181602001fd5b6001600160e01b031916630a85bd0160e11b149050949350505050565b6060600980546104c190611372565b606060a06040510180604052602081039150506000815280825b600183039250600a81066030018353600a9004806110105750819003601f19909101908152919050565b6001600160e01b03198116811461085857600080fd5b60006020828403121561106257600080fd5b8135610ba68161103a565b60005b83811015611088578181015183820152602001611070565b50506000910152565b600081518084526110a981602086016020860161106d565b601f01601f19169290920160200192915050565b602081526000610ba66020830184611091565b6000602082840312156110e257600080fd5b5035919050565b80356001600160a01b038116811461110057600080fd5b919050565b6000806040838503121561111857600080fd5b611121836110e9565b946020939093013593505050565b60008060006060848603121561114457600080fd5b61114d846110e9565b925061115b602085016110e9565b9150604084013590509250925092565b6000806020838503121561117e57600080fd5b823567ffffffffffffffff8082111561119657600080fd5b818501915085601f8301126111aa57600080fd5b8135818111156111b957600080fd5b8660208285010111156111cb57600080fd5b60209290920196919550909350505050565b6000602082840312156111ef57600080fd5b610ba6826110e9565b8035801515811461110057600080fd5b6000806040838503121561121b57600080fd5b611224836110e9565b9150611232602084016111f8565b90509250929050565b634e487b7160e01b600052604160045260246000fd5b6000806000806080858703121561126757600080fd5b611270856110e9565b935061127e602086016110e9565b925060408501359150606085013567ffffffffffffffff808211156112a257600080fd5b818701915087601f8301126112b657600080fd5b8135818111156112c8576112c861123b565b604051601f8201601f19908116603f011681019083821181831017156112f0576112f061123b565b816040528281528a602084870101111561130957600080fd5b82602086016020830137600060208483010152809550505050505092959194509250565b6000806040838503121561134057600080fd5b611349836110e9565b9150611232602084016110e9565b60006020828403121561136957600080fd5b610ba6826111f8565b600181811c9082168061138657607f821691505b6020821081036113a657634e487b7160e01b600052602260045260246000fd5b50919050565b634e487b7160e01b600052601160045260246000fd5b808201808211156104ac576104ac6113ac565b80820281158282048414176104ac576104ac6113ac565b601f8211156109dc57600081815260208120601f850160051c810160208610156114135750805b601f850160051c820191505b818110156107b95782815560010161141f565b67ffffffffffffffff83111561144a5761144a61123b565b61145e836114588354611372565b836113ec565b6000601f841160018114611492576000851561147a5750838201355b600019600387901b1c1916600186901b1783556114ec565b600083815260209020601f19861690835b828110156114c357868501358255602094850194600190920191016114a3565b50868210156114e05760001960f88860031b161c19848701351681555b505060018560011b0183555b5050505050565b6000835161150581846020880161106d565b83519083019061151981836020880161106d565b01949350505050565b6001600160a01b038581168252841660208201526040810183905260806060820181905260009061155590830184611091565b9695505050505050565b60006020828403121561157157600080fd5b8151610ba68161103a56fea2646970667358221220ab6f5d5fc4c8821d8a25e2c1360a60247ad06870eac306f3b52342d294de3f5964736f6c63430008110033",
  "linkReferences": {},
  "deployedLinkReferences": {}
}